:100000000C94A20A0C94CA0A0C94CA0A0C94CA0A48
:100010000C94CA0A0C94CA0A0C94CA0A0C94831D44
:100020000C94CA0A0C94CA0A0C94CA0A0C94CA0A00
:100030000C94CA0A0C94CA0A0C94CA0A0C94CA0AF0
:100040000C946C1E0C94CA0A0C94CD1C0C94A71C26
:100050000C94CA0A0C94CA0A0C94CA0A0C94CA0AD0
:100060000C94820C0C94CA0A08000000BE92244929
:10007000123EABAAAA2ABECDCCCC4C3E00000080DA
:10008000BEABAAAAAA3E00000000BF000000803F4D
:100090000000000000084178D3BB4387D1133D190D
:1000A0000E3CC3BD4282AD2B3E68EC8276BED98F3A
:1000B000E1A93E4C80EFFFBE01C4FF7F3F0000007E
:1000C000000007634236B79BD8A71A39685618AEA6
:1000D000BAAB558C1D3CB7CC5763BD6DEDFD753E7D
:1000E000F6177231BF000000803F000000002400BE
:1000F00027002A00000000000000000000000000AF
:1001000000000000000000000000000000000000EF
:10011000000000000000000000000040000000009F
:10012000000000000000000000004200000000008D
:10013000000000000000000000420000000000007D
:10014000000000000000000042000000000000006D
:10015000000000000000004400000000000000005B
:100160000000000000008C00000000000000000003
:1001700000000003FFF0000000000000000000008D
:1001800000000FFFC00000000000000000000000A1
:100190000038000000000000000000000000000027
:1001A00030000000000000000000000000000060BF
:1001B00000000000000000000000000000006000DF
:1001C00000000000000000000000000000400000EF
:1001D000000000000000000000000000000000001F
:1001E000000000000000000000001FFF00000000F1
:1001F000000000000000000000DFFF4000000000E1
:100200000000000000000001DFFF600000000000AF
:1002100000000000000001DFFF600000000000009F
:10022000000000000000DFFF4000000000000000B0
:1002300000000000001FFF000000000000000000A0
:10024000000000001FFF0000000000000000000090
:100250000000001FFF00000000000000000000017F
:10026000FFFFFFFFFFFFF00000000000000007FF9E
:10027000FFFFFFFFFFF80000000000000007FFFF86
:10028000FFFFFFFFF80000000000000003FFFFFF7A
:10029000FFFFFFF8000000000000000000001FFF4B
:1002A000000000000000000000000000001FFF0030
:1002B0000000000000000000000000001FFF000020
:1002C00000000000000000000000001FFF00000010
:1002D000000000000000000000001FFF0000000000
:1002E0000000000000000000001FFF0000000000F0
:1002F00000000000000000001FFF000000000000E0
:10030000000000000000001FFF00000000000000CF
:1003100000000000000001F00000000000000000EC
:10032000000000000001E0000000000000000000EC
:100330000000000001E000000000000000000000DC
:1003400000000001E00000000000000000000000CC
:10035000000001E0000000000000000000000000BC
:10036000000000000000000000000000000000008D
:10037000000000000000000000000000000000007D
:10038000000000000000000000000000000000006D
:10039000000000000000000000000000000000005D
:1003A000000000000000381C0000F0408180E01CCC
:1003B00003C0C040804611C0020C4081818C31C016
:1003C00080C0E08002106004004081410430608001
:1003D000A0B0800210200C00408241043020812017
:1003E0009080041010080040826104303081309801
:1003F0008018101008004084210C30108210888072
:10040000061010083C408421F830108210848002CD
:10041000101008044087F118303083F884800210EF
:10042000200C04408C110C30208608828002106061
:100430000404408811063060840883808611C0035C
:100440000C2108090231C08404818038000000F0CA
:100450001E0000000000000000000000000000007E
:10046000000000000000000000000000000000008C
:10047000000000000000000000000000000000007C
:10048000000000000000000000000000000000006C
:10049000000000000000000000000000000000005C
:1004A000000000000000000000000000000000004C
:1004B000000000000000000000000000000000003C
:1004C000000000000000000000000000000000002C
:1004D000000000000000000000000000416C61729C
:1004E0006D3A20004E6F6E6500456E61626C65640A
:1004F00000536D6F6B652053656E736F723A200009
:100500004D6F64653A200033442047756172642062
:100510002056657220302E314850002863294A4BFE
:100520005F32303138005374617274696E672E2EF9
:100530002E20004572726F7220436865636B2053F2
:10054000656E736F7273202D204E6F7420436F6E33
:100550006E65637465642000436865636B696E67EC
:1005600020666F722053656E736F727320636F6EB7
:100570006E656374656420746F2074686520626FB3
:100580006172640053746F72696E67204D6F6465A9
:100590002074797065203A0052656164696E672045
:1005A0004D6F64652074797065203A00536D6F6BF0
:1005B000652053656E736F72204E6F7420496E73A1
:1005C00074616C6C656400536D6F6B652053656E70
:1005D000736F722052656164696E67203A00536DD3
:1005E0006F6B652053656E736F7220496E73746113
:1005F0006C6C656400526573657474696E67005253
:100600006573657474696E6720416C61726D5F53C8
:100610007461746520210052656420427574746FA2
:100620006E20746F205265736574203F20005468FB
:1006300065726D616C2052756E6177617920210061
:10064000416C61726D20446574656374656420213A
:10065000212000536D6F6B652053656E736F7220A0
:1006600054726967676572656420416C61726D20C0
:100670002100536D6F6B652053656E736F7220524E
:10068000656164696E673A0045786974204D656EEE
:1006900075004E6F005965730044656661756C7432
:1006A000732E2E2E005365742054656D703A0048E9
:1006B00065617462656420005365742054656D70D3
:1006C0003A00486F74656E642031003E4578697465
:1006D000204D656E75003E44656661756C747300EF
:1006E0003E486561744265642053657454656D705D
:1006F00020003E486F74656E642031205365745449
:10070000656D70004D656E750045786974204D65A6
:100710006E75004E6F005965730044656661756CB7
:1007200074732E2E2E005365742054656D703A003C
:100730004865617462656420005365742054656D7A
:10074000703A00486F74656E6420320053657420FF
:1007500054656D703A00486F74656E642031003ED8
:1007600045786974204D656E75003E446566617517
:100770006C7473003E48656174426564205365740F
:1007800054656D7020003E486F74656E64203220A1
:1007900053657454656D70003E486F74656E6420D7
:1007A000312053657454656D70004D656E7500534E
:1007B00065742054656D703A00486F74656E6420EE
:1007C00032005365742054656D703A00486F74654B
:1007D0006E642031003E45786974204D656E750069
:1007E0003E44656661756C7473003E486F74656E57
:1007F0006420322053657454656D70003E486F74F8
:10080000656E6420312053657454656D70004D65CC
:100810006E750045786974204D656E75004E6F00E9
:100820005965730044656661756C74732E2E2E00D5
:100830005365742054656D703A00486F74656E643A
:100840002031003E45786974204D656E75003E4448
:10085000656661756C7473003E486F74656E6420E4
:10086000312053657454656D70004D656E7500459B
:100870007869742E2E2E00526573746F72696E67DC
:1008800000526573657474696E67204775617264A0
:1008900069616E00416C61726D20537461746520F2
:1008A0000054656D70657261747572652048333AE5
:1008B000200054656D7065726174757265204831F1
:1008C0003A20005365742054656D706572617475CB
:1008D00072655F3320005365742054656D706572D6
:1008E00061747572655F312000436F756E742066A8
:1008F0006F722048333A2000436F756E7420666F24
:10090000722048323A2000436F756E7420666F7211
:100910002048313A200054656D70657261747572BB
:10092000652048333A200054656D706572617475B6
:1009300072652048323A200054656D7065726174AA
:100940007572652048313A20005365742054656DF6
:1009500070657261747572655F3320005365742031
:1009600054656D70657261747572655F32200053F5
:1009700065742054656D70657261747572655F3160
:10098000200054656D70657261747572652048321F
:100990003A200054656D7065726174757265204807
:1009A000313A20005365742054656D70657261742E
:1009B0007572655F3220005365742054656D7065F3
:1009C0007261747572655F31200054656D70657277
:1009D00061747572652048313A2000536574205463
:1009E000656D70657261747572655F3120004D6F61
:1009F000646520547970652073657420746F203AA3
:100A000000000000000000000000000000000000E6
:100A100000000000000000000000000000000000D6
:100A200000000000000000000000000000000000C6
:100A300000000000000000000000000000000000B6
:100A400000000000000000000000000000000000A6
:100A50000000000000000000000000000000000096
:100A60000000000000000000000000000000000086
:100A70000000000000000000F00000000000000086
:100A8000000000000000F000000000000000000076
:100A900000000000F800000000000000000000005E
:100AA0000000FC000000000000000000000000004A
:100AB0008C000000000000000000000000018E001B
:100AC0000000000000000000000000018E00000097
:100AD00000000000000000000003F700000000001C
:100AE000000000000000000773000000000000008C
:100AF00000000000000671C00000000000000000BF
:100B00000000001E71E00000000000000000000076
:100B1000001E71E000000000000000000000001C4A
:100B200000E000000000000000000000003870F04D
:100B3000000000000000000000000038003000004D
:100B40000000000000000000007FFFF00000000037
:100B5000000000000000007FFFF000000000000027
:100B600000000000003FFFF0000000000000000057
:100B70000000000000000000000000000000000075
:100B80000000000000000000000000000000000065
:100B90000000000000000000000000000000000055
:100BA0000000000000000000000000000000000045
:100BB0000000000000000000000000000000000035
:100BC0000000000000000000000000000000000025
:100BD0000000000000000000000000000000000015
:100BE0000000000000000000000000000000000005
:100BF00000000000000000000000000000000000F5
:100C000000000000000000000000000000000000E4
:100C100000000000000000000000000000000000D4
:100C200000000000000000000000000000000000C4
:100C300000000000000000000000000000000000B4
:100C400000000000000000000000000000000000A4
:100C500000000000000000000000000FEC00000099
:100C60000303E00000000000000FEC00000003039D
:100C7000E0000000000000038D9EDF99F30366CFC3
:100C80009F6EDECC00038FBFF7FCF303E6CF8F7FB0
:100C9000CE7C00038D90E6DFB303E7CDBB3BBE38CF
:100CA00000038D9EE6DDFB0377CD9F9B1F38000080
:100CB0000000000000000000000000300000000004
:100CC000000000000000000000E000000000000044
:100CD0000000000000000000000000000000000014
:100CE0000000000000000000000000000000000004
:100CF00000000000000000000000000000000000F4
:100D000000000000000000000000000000000000E3
:100D100000000000000000000000000000000000D3
:100D200000000000000000000000000000000000C3
:100D300000000000000000000000000000000000B3
:100D400000000000000000000000000000000000A3
:100D50000000000000000000000000000000000093
:100D60000000000000416C61726D20737461746555
:100D7000203A0054656D7065726174757265204823
:100D8000323A200054656D70657261747572652029
:100D900048313A20005365742054656D7065726166
:100DA000747572655F3220005365742054656D70F0
:100DB000657261747572655F312000416C61726D9E
:100DC0000053616665200000000000000000000084
:100DD0000000000000000000000000000000000013
:100DE0000000000FFF0000FFF00000000000000006
:100DF000000FFF8000FFF800000000000C00600FF3
:100E0000FF8000FFF800000000003000180FFF8096
:100E100000FFF8000302000070001C0FFF8000FFBD
:100E2000F800018180007701DC0F3F8000F0F800BE
:100E3000030380006F01EE0C3F8000E0780007079D
:100E40008000EE006E0C3F8000C63800070780006F
:100E5000483C240F3F8000FF38000C0C000008FEC7
:100E6000200F3F8000FE38000C0C000001FF000F37
:100E70003F8000FC78000E0E000001FF000F3F8055
:100E800000F8F8000206000003FF800F3F8000F129
:100E9000F8000303800003FF800F3F8000E3F800A9
:100EA0000303800003FF800F3F8000C7F80001812B
:100EB000800003FF800F3F8000C03800E1038700FF
:100EC00007FFC00F3F8000C03800E30387000FFF1B
:100ED000E00FFF8000FFF800FF87FF000FFFE0003A
:100EE000F800000F8000FFFFFF0000000000F80086
:100EF000000F80000000000000380000F000000F2C
:100F00000000000000000038000070000007000032
:100F1000000000000000000070000007000000005A
:100F2000000000000000200000020000000000009F
:100F300000000000000000000000000000000000B1
:100F400000000000000000000000000000000000A1
:100F50000000000000000000000000000000000091
:100F60000000000000000000000000000000000081
:100F7000000000000000000000300F124E6F2053F0
:100F8000656E736F7220696E205433210045727252
:100F90006F722053656E736F7220436865636B20B8
:100FA0005433004E6F2053656E736F7220696E204C
:100FB000543221004572726F722053656E736F72E6
:100FC00020436865636B205432004E6F2053656E7A
:100FD000736F7220696E20543121004572726F72F6
:100FE0002053656E736F7220436865636B205431C4
:100FF0000000000000003E5B4F5B3E3E6B4F6B3ECF
:101000001C3E7C3E1C183C7E3C181C577D571C1C0B
:101010005E7F5E1C00183C1800FFE7C3E7FF001866
:10102000241800FFE7DBE7FF30483A060E2629794F
:101030002926407F050507407F05253F5A3CE73CB0
:101040005A7F3E1C1C08081C1C3E7F14227F221461
:101050005F5F005F5F06097F017F006689956A60B8
:101060006060606094A2FFA29408047E04081020CF
:101070007E201008082A1C08081C2A08081E1010C8
:1010800010100C1E0C1E0C30383E3830060E3E0E72
:1010900006000000000000005F00000007000700DD
:1010A000147F147F14242A7F2A12231308646236C3
:1010B000495620500008070300001C22410000414F
:1010C000221C002A1C7F1C2A08083E080800807089
:1010D00030000808080808000060600020100804BC
:1010E000023E5149453E00427F400072494949460F
:1010F0002141494D331814127F1027454545393C8D
:101100004A49493141211109073649494936464979
:1011100049291E000014000000403400000008149B
:101120002241141414141400412214080201590914
:10113000063E415D594E7C1211127C7F4949493669
:101140003E414141227F4141413E7F494949417FE2
:10115000090909013E414151737F0808087F004198
:101160007F41002040413F017F081422417F4040E1
:1011700040407F021C027F7F0408107F3E414141B6
:101180003E7F090909063E4151215E7F0919294622
:10119000264949493203017F01033F4040403F1F38
:1011A0002040201F3F4038403F631408146303046D
:1011B0007804036159494D43007F414141020408CD
:1011C0001020004141417F040201020440404040A0
:1011D00040000307080020545478407F28444438D6
:1011E0003844444428384444287F38545454180020
:1011F000087E090218A4A49C787F0804047800449F
:101200007D40002040403D007F1028440000417F89
:1012100040007C047804787C080404783844444412
:1012200038FC1824241818242418FC7C080404080A
:10123000485454542404043F44243C4040207C1C23
:101240002040201C3C4030403C44281028444C9016
:1012500090907C4464544C44000836410000007770
:101260000000004136080002010204023C26232649
:101270003C1EA1A161123A4040207A38545455597D
:1012800021555579412254547842215554784020B3
:10129000545579400C1E52721239555555593954CE
:1012A00054545939555454580000457C4100024566
:1012B0007D420001457C407D1211127DF0282528D9
:1012C000F07C545545002054547C547C0A097F49D5
:1012D00032494949323A4444443A324A4848303A19
:1012E0004141217A3A42402078009DA0A07D3D42B4
:1012F00042423D3D4040403D3C24FF2424487E493D
:1013000043662B2FFC2F2BFF0929F620C0887E096E
:101310000320545479410000447D413048484A320A
:10132000384040227A007A0A0A727D0D19317D26F2
:1013300029292F28262929292630484D40203808D8
:1013400008080808080808382F10C8ACBA2F102859
:1013500034FA00007B000008142A142222142A14F4
:10136000085500550055AA55AA55AAFF55FF55FF27
:10137000000000FF00101010FF00141414FF0010F4
:1013800010FF00FF1010F010F0141414FC001414DF
:10139000F700FF0000FF00FF1414F404FC141417FE
:1013A000101F10101F101F1414141F00101010F025
:1013B000000000001F101010101F10101010F0106F
:1013C000000000FF101010101010101010FF10007F
:1013D0000000FF140000FF00FF00001F10170000B6
:1013E000FC04F414141710171414F404F40000FF90
:1013F00000F714141414141414F700F71414141729
:101400001410101F101F141414F4141010F010F006
:1014100000001F101F0000001F14000000FC14003B
:1014200000F010F01010FF10FF141414FF1410102F
:10143000101F00000000F010FFFFFFFFFFF0F0F0B2
:10144000F0F0FFFFFF0000000000FFFF0F0F0F0F85
:101450000F3844443844FC4A4A4A347E02020606A5
:10146000027E027E0263554941633844443C044095
:101470007E201E2006027E020299A5E7A5991C2A5D
:10148000492A1C4C7201724C304A4D4D303048781C
:101490004830BC625A463D3E494949007E0101013F
:1014A0007E2A2A2A2A2A44445F444440514A44401E
:1014B00040444A51400000FF0103E080FF00000863
:1014C000086B6B083612362436060F090F0600002B
:1014D00018180000001010003040FF0101001F012B
:1014E000011E00191D1712003C3C3C3C000000008E
:1014F0000000000000230026002900000000080072
:1015000002010000030407000000000000000001C9
:101510000204081020408001020408102001020487
:1015200008102000000000250028002B00040404FF
:10153000040404040402020202020203030303037C
:101540000302E03511241FBECFEFD8E0DEBFCDBFD0
:1015500015E0A0E0B1E0E4EBF5E702C005900D92E4
:10156000A63CB107D9F727E0A6ECB5E001C01D9273
:10157000A43AB207E1F71AE0C2EADAE004C0219720
:10158000FE010E94BE3AC13AD107C9F70E94452424
:101590000C94D83A0C940000DC01ED91FC9100848D
:1015A000F185E02D099408952F923F924F925F921A
:1015B0006F927F928F929F92AF92BF92CF92DF9263
:1015C000EF92FF920F931F93CF93DF9300D01F9260
:1015D000CDB7DEB74C017B836A836A0159011701DD
:1015E0009801241B350B37FF03C031952195310934
:1015F000C5014A815B81841B950B97FF03C09195C0
:101600008195910951E059838217930714F019824B
:101610000BC09A2D8B2D5801092F182F9A818B8181
:10162000DB82CA82C92ED82E8A819B81A816B90670
:101630005CF49C2D8D2D6801092F182F9A818B81C8
:10164000BB82AA82A92EB82E2501AA81BB814A1A83
:101650005B0A38016C187D0877FE03C071946194B1
:101660007108720157FE03C0BFEFEB1AFB0AF59435
:10167000E794C016D1061CF00FEF1FEF1FC001E06A
:1016800010E01CC0D401ED91FC91B9810484F58572
:10169000E02D9101BB23C1F04A815B81B601C401F9
:1016A0000995E618F708F7FE04C0C00ED11EE40C39
:1016B000F51CEA81FB813196FB83EA834A815B81D9
:1016C000A416B506FCF604C0A6016A817B81E7CFAB
:1016D0000F900F900F90DF91CF911F910F91FF907E
:1016E000EF90DF90CF90BF90AF909F908F907F90C2
:1016F0006F905F904F903F902F90089585ED80936D
:10170000BC008091BC0084FDFCCF10928606089539
:1017100040912B06262F30E0240F311D2132310558
:10172000DCF4209186062430C9F4FC0180E090E0CE
:10173000861758F430912B062191DC01A75FB94F31
:10174000A30FB11D2C930196F3CF80912B06680F48
:1017500060932B0680E0089581E0089582E008956B
:10176000089581E090E03091C7052091C6053217B9
:1017700010F480E090E09195819591090895809111
:10178000C7059091C605891730F48F5F8093C70510
:1017900080E090E008958FEF9FEF08958091C60557
:1017A00090E02091C705821B91090895CF92DF92A6
:1017B000EF92FF920F931F93CF93DF937C01262F1D
:1017C000972F8A0180918706882391F0C62FD72F03
:1017D0006E01C40ED51ECC15DD0571F06991D701DF
:1017E000ED91FC910190F081E02DC7010995F3CFB7
:1017F000642F822F0E94880BC801DF91CF911F9127
:101800000F91FF90EF90DF90CF900895CF93DF93EB
:101810001F92CDB7DEB76983209187062223D1F0CE
:101820002091A906203240F021E030E0FC01338312
:10183000228380E090E015C080918806E82FF0E0D8
:10184000E757F94F998190838F5F80938806809343
:10185000A90605C061E0CE0101960E94880B81E0D7
:1018600090E00F90DF91CF910895089580E090E08F
:101870000895EF92FF920F931F93CF93DF93E82E7B
:1018800009EE15E0E80188E0F82E21E0E21203C03D
:1018900083E997E00BC082E0E81203C081E997E09A
:1018A00005C0E3E0EE1208C08FE897E00E94B61E84
:1018B000688379838A839B836AE070E080E090E0AC
:1018C0000E94321EFA942496F110DFCF60E070E09F
:1018D000CB01F80121913191419151918F010E94E9
:1018E000AB36F6E009301F07A1F720E030E040E01A
:1018F0005EE30E94CB38DF91CF911F910F91FF9053
:10190000EF9008951F920F920FB60F9211242F930C
:101910003F934F935F936F937F938F939F93AF9377
:10192000BF93EF93FF938091B900887F803609F4CD
:101930009CC068F5883209F45BC090F4803109F4EA
:1019400054C038F4882309F4F6C0883009F44DC037
:10195000F6C0883109F44CC0803209F45DC0EFC094
:10196000803409F468C048F4803309F455C08833E2
:1019700009F0E5C080938406D8C0803509F44FC0D3
:10198000883509F45DC0883409F0D9C0D6C08839DB
:1019900009F4C7C0A8F4883709F467C038F488365A
:1019A00009F463C0803709F460C0C9C0883809F4FD
:1019B000B8C0803909F45FC0803809F0C0C05BC08E
:1019C000803B09F486C038F4803A09F466C0883A4E
:1019D00009F47FC0B4C0803C09F4A7C0883C09F476
:1019E000A4C0883B09F48AC0AAC08091610610C0D7
:1019F0009091830680918206981770F5E091830696
:101A000081E08E0F80938306F0E0EE59F94F8081DC
:101A10008093BB0085EC86C0809384068EC0E091E5
:101A2000830681E08E0F809383068091BB00F0E0F7
:101A3000EE59F94F808390918306809182066EC0A3
:101A4000E091830681E08E0F809383068091BB0036
:101A5000F0E0EE59F94F80838091850681116DC0C9
:101A600081E08093600684EA61C083E0809386060B
:101A700010924F06CFCF80914F06803208F051C0B0
:101A8000E0914F0681E08E0F80934F068091BB005E
:101A9000F0E0E15DF94F8083BDCF85EC8093BC0021
:101AA0001092860680914F06803230F4E0914F0606
:101AB000F0E0E15DF94F108260914F0670E0E09137
:101AC0002D06F0912E068FE296E0099510924F06B2
:101AD00036C084E08093860610922C0610922B0666
:101AE000E0912906F0912A06099580912B06811133
:101AF00005C081E080932B0610920906E0912C0628
:101B000081E08E0F80932C06F0E0E75FF94F808133
:101B10008093BB0090912C0680912B06981708F4B7
:101B200079CF85E88093BC000AC085EC8093BC0027
:101B30001092860604C0109284060E947E0BFF91CC
:101B4000EF91BF91AF919F918F917F916F915F9135
:101B50004F913F912F910F900FBE0F901F901895AE
:101B60000F931F93CF93DF931F92CDB7DEB78C01F6
:101B700069830E9494366981681741F0C8010F900B
:101B8000DF91CF911F910F910C949C360F90DF91B4
:101B9000CF911F910F9108950C9494366091D105C7
:101BA0007091D2058091D3059091D4059B01AC0131
:101BB0000E9488398823E9F00E94A61F10926E07C0
:101BC00010926D071092700710926F076BED7FE017
:101BD00081E697E00E94431B10926E0710926D07FA
:101BE0008FE090E09093700780936F076AEC7FE03E
:101BF00055C06091CD057091CE058091CF05909133
:101C0000D0059B01AC010E9488398823E9F00E942D
:101C1000A61F10926E0710926D0710927007109217
:101C20006F0764EB7FE081E697E00E94431B109210
:101C30006E0710926D078FE090E09093700780938D
:101C40006F0763EA7FE02AC06091C9057091CA05F9
:101C50008091CB059091CC059B01AC010E94883905
:101C6000882351F10E94A61F10926E0710926D07F3
:101C70001092700710926F076DE87FE081E697E0A1
:101C80000E94431B10926E0710926D078FE090E048
:101C90009093700780936F076CE77FE081E697E091
:101CA0000E94431B0E94642064EF71E080E090E09A
:101CB0000E94321E81E0089580E0089581309105F0
:101CC000B1F01CF4892B39F008958230910531F17F
:101CD0000397D9F1089581E00E94390C6093D105F2
:101CE0007093D2058093D3059093D405089581E035
:101CF0000E94390C6093D1057093D2058093D3056F
:101D00009093D40582E00E94390C6093CD057093C6
:101D1000CE058093CF059093D005089581E00E9471
:101D2000390C6093D1057093D2058093D3059093BD
:101D3000D40582E00E94390C6093CD057093CE05E6
:101D40008093CF059093D0050BC081E00E94390CA1
:101D50006093D1057093D2058093D3059093D405F9
:101D600083E00E94390C6093C9057093CA05809383
:101D7000CB059093CC05089580915F079091600703
:101D80008130910531F48091C805882391F061E09C
:101D900007C0892B71F48091C80581110AC060E0E9
:101DA00083E00E94281D68EC70E080E090E00C94D5
:101DB000321E089581E090E00E94CC0D682F70E003
:101DC00080E090E00E94C43760935B0770935C07EB
:101DD00080935D0790935E0782E090E00E94CC0DB7
:101DE000682F70E080E090E00E94C437609357074E
:101DF000709358078093590790935A0783E090E0B7
:101E00000E94CC0D682F70E080E090E00E94C43703
:101E10006093530770935407809355079093560728
:101E20001092600710925F071092C8050E94BC0EC6
:101E30006091530770915407809155079091560710
:101E40000E94953783E090E00E94B00D60915707A3
:101E5000709158078091590790915A070E949537C1
:101E600082E090E00E94B00D60915B0770915C078A
:101E700080915D0790915E070E94953781E090E028
:101E80000E94B00D60915F0780E090E00C94B00D6F
:101E9000EF92FF920F931F93CF93DF930E94CE0D8B
:101EA00081118FC10E94A61F81E08093750781E098
:101EB00090E09093740780937307909372078093D8
:101EC00071074CE150E060E770E087EC9DE00E9414
:101ED000B11F80912601909127018130910509F46D
:101EE00073C064F5892B09F043C110926E071092FC
:101EF0006D0783E290E09093700780936F07609185
:101F00005B0770915C0780915D0790915E0740E0F0
:101F100050E00E94142010926E0710926D0787E324
:101F200090E09093700780936F076091D105709156
:101F3000D2058091D3059091D40516C182309105C8
:101F400009F495C0039709F013C110926E0710921F
:101F50006D07C3E2D0E0D0937007C0936F07609124
:101F60005B0770915C0780915D0790915E0740E090
:101F700050E00E9414200CE310E010936E070093D1
:101F80006D07D0937007C0936F07609153077091EE
:101F90005407809155079091560740E050E00E9409
:101FA000142010926E0710926D07C7E3D0E0D09313
:101FB0007007C0936F076091D1057091D205809131
:101FC000D3059091D405BCC010926E0710926D0796
:101FD000C3E2D0E0D0937007C0936F0760915B07B6
:101FE00070915C0780915D0790915E0740E050E042
:101FF0000E9414200EE110E010936E0700936D070D
:10200000D0937007C0936F0760915707709158077E
:102010008091590790915A0740E050E00E941420A7
:1020200010926E0710926D07C7E3D0E0D09370074F
:10203000C0936F076091D1057091D2058091D3054F
:102040009091D40540E050E00E94142010936E0758
:1020500000936D07D0937007C0936F076091CD0513
:102060007091CE058091CF059091D0057DC01092E2
:102070006E0710926D07C3E2D0E0D0937007C09353
:102080006F0760915B0770915C0780915D0790918D
:102090005E0740E050E00E9414208EE1E82EF12C13
:1020A000F0926E07E0926D07D0937007C0936F07B0
:1020B00060915707709158078091590790915A077E
:1020C00040E050E00E9414200CE310E010936E07F3
:1020D00000936D07D0937007C0936F07609153070B
:1020E00070915407809155079091560740E050E059
:1020F0000E94142010926E0710926D07C7E3D0E083
:10210000D0937007C0936F076091D1057091D2058D
:102110008091D3059091D40540E050E00E941420B6
:10212000F0926E07E0926D07D0937007C0936F072F
:102130006091CD057091CE058091CF059091D0052D
:1021400040E050E00E94142010936E0700936D074A
:10215000D0937007C0936F076091C9057091CA054D
:102160008091CB059091CC0540E050E00E94142076
:102170008AE590E090936E0780936D0787E390E087
:102180009093700780936F0780915F07909160072D
:10219000892B19F461EC7DE002C06BEB7DE081E6F8
:1021A00097E00E94431B0E94642064E670E080E098
:1021B00090E0DF91CF911F910F91FF90EF900C94E1
:1021C000321EDF91CF911F910F91FF90EF900895F4
:1021D000CF93DF9380915F0790916007019709F09B
:1021E00082C0C0E0D0E044E650E060E070E0CE01A4
:1021F0000E94A02162E370E080E090E00E94321E25
:1022000080915F0790916007019761F40E94A61F7B
:102210004EE350E060E770E081E09AE00E94B11F79
:102220000E94642068EA7DE08AEA96E00E94431BEF
:1022300060915B0770915C0780915D0790915E07EC
:102240000E948B2165E97DE08AEA96E00E94431BAB
:1022500060915707709158078091590790915A07DC
:102260000E948B2164E87DE08AEA96E00E94431B8D
:102270006091D1057091D2058091D3059091D405DC
:102280000E948B2163E77DE08AEA96E00E94431B6F
:102290006091CD057091CE058091CF059091D005CC
:1022A0000E948B2165E67DE08AEA96E00E94431B4E
:1022B00040915F0750916007052E000C660B770B6D
:1022C0008AEA96E00E945921CC50DE4FC8398AE351
:1022D000D80709F088CF60915F0780E090E0DF9138
:1022E000CF910C94B00DDF91CF910895CF93DF93F0
:1022F000EA010E9483382C813D814E815F810E94DA
:10230000AA36288539854A855B850E941C37288135
:1023100039814A815B810E94AB369B01AC0160E050
:1023200070E080E291E40E9438390E948E37DF919C
:10233000CF9108950F931F93CF93DF93DC01FB019F
:1023400055968C915597823081F0833019F1813008
:1023500051F514968D919C911597BC01641B750BDA
:10236000AB0141505109BF0181C014966D917C9120
:102370001597CB018E1B9F0BFC0116968D919C919E
:102380001797BC01641B750BAB0141505109E21B4F
:10239000F30B09C016966D917C9117976E1B7F0BFE
:1023A000621B730B63C057FD1CC116968D919C91E7
:1023B0001797481759070CF014C1F7FF04C02E0FE8
:1023C0003F1FE0E0F0E014968D919C911597BF01BE
:1023D000620F731F861797071CF49C012E1B3F0B7F
:1023E000121613060CF0FDC0CA0157FD079663E0F4
:1023F000959587956A95E1F79695982F88279795F3
:102400008795E80FF91FE75DFE4F4770552781E07C
:1024100090E001C0880F4A95EAF7482F0130110576
:1024200041F088F00230110509F0DBC02E0F3F1F8C
:1024300015C02E0F3F1FE217F30709F4D2C08081A9
:10244000842B8193F8CF80952E0F3F1FE217F3075F
:1024500009F4C7C0908198239193F8CFE217F3074E
:1024600009F4BFC0808184278193F8CF57FDB9C09C
:1024700014968D919C911597481759070CF0B1C08F
:1024800077FF04C0260F371F60E070E016968D912D
:102490009C911797FB01E20FF31F8E179F071CF407
:1024A0009C01261B370B121613060CF09AC0A22FA4
:1024B000862F86958695869590E8899F400D511DBB
:1024C0001124FA01E75DFE4F6770A9F198E0961BB1
:1024D000492F50E0EA01CF5CDA4F8881291790F448
:1024E000421B51092FEF30E002C0359527954A95E0
:1024F000E2F782230130110541F068F00230110546
:1025000089F06FC00130110519F42081822B0CC0B5
:102510000130110520F480952081822305C002300E
:10252000110531F4208182278083A91708F459C04E
:10253000A91BE058FF4FA83048F10230110559F4AB
:10254000EF018A2F988190959883C058DF4F88506B
:102550008830C0F731C081E00130110509F080E01A
:102560008195EF019A2F8883C058DF4F985098309B
:10257000D0F788EF8A0F86958695869560E8869FC6
:10258000E00DF11D1124E058FF4FA770AA2349F177
:10259000B0E0A75DBA4F8C910130110529F038F0F9
:1025A00002301105D9F01DC09081892B03C08095A0
:1025B00090818923808315C088EF8A0F8695869540
:1025C000869570E8879FE00DF11D1124E058FF4FBC
:1025D000A77039F0B0E0A75DBA4F8C919081892740
:1025E000E9CFDF91CF911F910F910895FC0177FD05
:1025F0009AC080859185681779070CF094C057FDC3
:1026000092C082859385481759070CF08CC0858944
:10261000823009F07CC084819581DC01A61BB70B58
:10262000BD016150710986819781FC01E41BF50BA6
:10263000AF01415051090AC0813041F48481958134
:10264000841B950BAB01BC01615071092130310530
:1026500029F008F122303105E1F10895FA0157FD22
:102660003796A3E0F595E795AA95E1F7F695FE2F45
:10267000EE27F795E7956E0F7F1FFB01E75DFE4F95
:102680004770552781E090E001C0880F4A95EAF72E
:102690009081892B3AC0FA0157FD379623E0F595D2
:1026A000E7952A95E1F7F695FE2FEE27F795E79542
:1026B0006E0F7F1FFB01E75DFE4F4770552781E0DE
:1026C00090E001C0880F4A95EAF7809590818923B0
:1026D0001CC0FA0157FD379683E0F595E7958A957A
:1026E000E1F7F695FE2FEE27F795E7956E0F7F1F22
:1026F000FB01E75DFE4F4770552781E090E001C088
:10270000880F4A95EAF7908189278083089583305E
:1027100009F092CF86819781861B970BBA01AC0195
:102720004150510993CF08950895FC016370658B62
:102730008481958126813781613039F0633029F0B9
:1027400091878087338722870895318720879387F1
:10275000828708952F923F924F925F926F927F925D
:102760008F929F92AF92BF92CF92DF92EF92FF92A1
:102770000F931F93CF93DF93CDB7DEB76C970FB650
:10278000F894DEBF0FBECDBF9C8F8B8F5B011A010B
:102790001F830E833701C982DC0158964D915C91ED
:1027A00059974115510509F0E5C018968D919C91F6
:1027B0001997681779070CF0CAC11A968D919C91E8
:1027C0001B97281639060CF0C2C18C2C912CFB01EA
:1027D00036E0C39EE00DF11D1124FB87EA871E162B
:1027E0001F060CF0B4C1C40133E0880F991F3A955D
:1027F000E1F79D878C87820D931D181619060CF042
:10280000A6C157968C91811103C0203B08F02F5F21
:10281000AB8DBC8DED91FC9111970284F385E02D79
:10282000CD012A8F09952A8DB5E02B9F90011124A7
:10283000F5013596FF87EE87BB82AA822501A901A3
:102840004A195B09598B488BC10108969B8B8A8B6F
:10285000E889F989E40DF51DEF50F04F94919887C0
:1028600061013D822C82A885A0FF13C0AB8DBC8D79
:10287000ED91FC91B981B13031F40484F585E02DFE
:102880002E813F8116C00684F785E02DEE80FF8003
:102890001AC0EE81FF816E167F06F1F0AB8DBC8D04
:1028A000ED91FC91B981B13051F40484F585E02DAE
:1028B0009301A601B2018B8D9C8D09950DC00684F4
:1028C000F785E02D7301840194014C815D816A815B
:1028D0007B818B8D9C8D0995E885E695E887FFEFD8
:1028E000CF1ADF0A2C813D81280D391D3D832C83B1
:1028F0004A895B89C416D50609F0B5CF5FEF451A42
:10290000550A8A819B81880D991D9B838A83AE8598
:10291000BF854A165B0609F09BCFEE81FF816E16DC
:102920007F0609F4F2C0EB8DFC8DA081B181F981A5
:10293000F13079F4B5016B5F7F4F5096ED91FC91CA
:102940005197830128E030E0A1018B8D9C8D099582
:10295000DCC06A857B85681979091E96ED91FC912A
:102960001F9773010C851D859401A1018B8D9C8D92
:102970000995CBC0FA013496949132976591749180
:10298000291BCB01B7E02B9F800D911D1124FA016B
:10299000259134913B8B2A8BFC01459154915B83AB
:1029A0004A83FC013296C490319654915E873296E8
:1029B00014913196D4908981823058F0612E012E85
:1029C000000C7708AD2D0D2C000CBB0BB987A88728
:1029D00004C019861886612C712CAB8DBC8DED91CD
:1029E000FC9111970284F385E02DCD010995B98101
:1029F0008B2E912C689CC001699C900D789C900D49
:102A00001124FC01EA0DFB1DFD87EC871C82712C53
:102A1000612CE12F110FFF0B95012E0F3F1F3B87FC
:102A20002A87AC0CB11CA5014E0F5F1F5F8B4E8B2C
:102A3000C1018D0D911DD7FC9A95998F888F4E8578
:102A4000641608F062C0862D90E048855985480FCD
:102A5000591F489D9001499D300D589D300D1124FE
:102A6000D901A20DB31DB98BA88BAA84BB844C8459
:102A70005D84DC80BA85DB1AE88DF98DE80FF91FDB
:102A8000FD8BEC8B8D2D8A0D2E893F89A216B30606
:102A9000B9F1877061F48A819B810196EA89FB898B
:102AA000AA81BB81EA0FFB1F74909B838A8377FE08
:102AB00020C0AB8DBC8DED91FC91B981B13061F43A
:102AC0000484F585E02D2E813F814C895D89B50117
:102AD0008B8D9C8D09950DC00684F785E02DEE80C9
:102AE000FF808401940148895989B2018B8D9C8DA6
:102AF0000995770CEFEFAE1ABE0A480C591CC2CFED
:102B00003C813C0D3C8363949ACFAB8DBC8DED91A1
:102B1000FC9111970688F789E02DCD016C960FB6D0
:102B2000F894DEBF0FBECDBFDF91CF911F910F9103
:102B3000FF90EF90DF90CF90BF90AF909F908F90DD
:102B40007F906F905F904F903F902F9009946C967C
:102B50000FB6F894DEBF0FBECDBFDF91CF911F91AE
:102B60000F91FF90EF90DF90CF90BF90AF909F902C
:102B70008F907F906F905F904F903F902F9008952F
:102B8000AF92BF92CF92EF92FF920F931F93CF938A
:102B9000DF93EC01262F888D998D009709F040C0B6
:102BA0006A3059F41D861C862C898E859F8538E0F5
:102BB000239F800D911D112441C06D3009F4AAC0DE
:102BC0008E898823C1F03C898C859D8546E0349FA1
:102BD000800D911D112448855985481759075CF4CB
:102BE0001D861C868E859F8548E0349F800D911D33
:102BF00011249F878E87EA88FB88088919894E856A
:102C00005F856C857D85CC88CE010E94AA132C89B6
:102C10008C859D8536E0239F800D911D112442C037
:102C20006A3079F41D861C862C89FC013696E49165
:102C30008E859F852E9F800D911D11249F878E87E5
:102C400069C06D3009F466C0FC0134963491631795
:102C500008F460C03196E491E61708F45BC0FC010B
:102C60003296A590B490462F50E0431B510937E0AF
:102C7000349FB001359F700D1124A60EB71EF501CB
:102C8000329634913196E491332311F0E1110DC065
:102C9000F5013496E4912C898C859D85E29F800D09
:102CA000911D11249D878C8735C0F501359644917F
:102CB0005E89552311F16C89E32FF0E0E40FF11DDB
:102CC00047FDFA956E9FD0016F9FB00D11244C8582
:102CD0005D854A0F5B1FE885F985E417F5076CF4FD
:102CE0001D861C86FC013696E4918E859F856E9F1D
:102CF000800D911D11249F878E87EA88FB880889A3
:102D000019894E855F856C857D85CC88CE010E94B2
:102D1000AA13BECF81E090E0DF91CF911F910F9178
:102D2000FF90EF90CF90BF90AF9008956F927F92F9
:102D30008F929F92AF92BF92CF92DF92EF92FF92CB
:102D40000F931F93CF93DF93EC014B015A0169015D
:102D50003801E881F9810284F385E02D0995E88145
:102D6000F9810288F389E02D87019601A501B4015C
:102D7000CE010995E881F981A501460D571D415005
:102D800051090288F389E02D9601B401CE0109951D
:102D9000E881F9810088F189E02D9301A501B40152
:102DA000CE010995E881F981C80CD91CB6016150A2
:102DB00071090088F189E02D9301A501CE010995E3
:102DC000E881F9810688F789E02DCE01DF91CF9166
:102DD0001F910F91FF90EF90DF90CF90BF90AF9039
:102DE0009F908F907F906F900994CF92DF92EF9297
:102DF000FF920F931F93CF93DF9300D000D000D0AA
:102E0000CDB7DEB76C01DC01ED91FC916217730761
:102E100089F4041715072CF4942F852FA801092F86
:102E2000182F041B150B98012F5F3F4F048CF58D55
:102E3000E02D12C04017510709F5261737072CF46B
:102E4000962F872FB901292F382F261B370B2F5F7D
:102E50003F4F068CF78DE02D8701C6010995269618
:102E60000FB6F894DEBF0FBECDBFDF91CF911F919B
:102E70000F91FF90EF90DF90CF9008950284F3853B
:102E8000E02D2D833E834B835C8369837A83099590
:102E9000D601ED91FC910488F589E02D2D813E81CC
:102EA0004B815C8169817A81C6010995D601ED91DA
:102EB000FC910688F789E02DC60126960FB6F89496
:102EC000DEBF0FBECDBFDF91CF911F910F91FF905D
:102ED000EF90DF90CF900994EF92FF920F931F93A2
:102EE000DC01ED91FC9111971A960D911C911B97A5
:102EF00018962D913C91199700A0F1A1E02D7B012E
:102F000040E050E060E070E009951F910F91FF9064
:102F1000EF9008954F925F926F927F928F929F925F
:102F2000AF92BF92CF92DF92EF92FF920F931F93D7
:102F3000CF93DF9300D0CDB7DEB76C015A013901D2
:102F40004801DC01ED91FC910284F385E02D698359
:102F50007A8309956981462E7A81572E640C751CF7
:102F6000D601ED91FC91461457046CF40088F18968
:102F7000E02D87019401A501B201C6010995BFEFBB
:102F80004B1A5B0AEDCF0688F789E02DC6010F903A
:102F90000F90DF91CF911F910F91FF90EF90DF90F5
:102FA000CF90BF90AF909F908F907F906F905F90E9
:102FB0004F900994AF92BF92CF92DF92EF92FF921F
:102FC0000F931F93CF93DF9300D000D0CDB7DEB720
:102FD0005C016901DC01ED91FC910284F385E02D37
:102FE0004B835C8369837A830995D501ED91FC91CC
:102FF00069817A819B012C0D3D1D21503109048886
:10300000F589E02D78014B815C818A01C501099524
:10301000D501ED91FC910688F789E02DC5010F904F
:103020000F900F900F90DF91CF911F910F91FF9014
:10303000EF90DF90CF90BF90AF900994AF92BF9286
:10304000CF92DF92EF92FF920F931F93CF93DF9374
:1030500000D000D0CDB7DEB75C016901DC01ED9195
:10306000FC910284F385E02D4B835C8369837A8332
:103070000995D501ED91FC914B815C81C40ED51E63
:10308000B1E0CB1AD1080488F589E02D78018601DA
:1030900069817A819B01C5010995D501ED91FC916A
:1030A0000688F789E02DC5010F900F900F900F90C3
:1030B000DF91CF911F910F91FF90EF90DF90CF9014
:1030C000BF90AF9009940895EF92FF920F931F93D2
:1030D000DC01ED91FC9100A0F1A1E02D09951F917B
:1030E0000F91FF90EF9008950F931F93DC01ED91E6
:1030F000FC91068CF78DE02D09951F910F91089595
:103100000F931F93DC01ED91FC91048CF58DE02D64
:1031100009951F910F910895CF92DF92EF92FF9240
:103120000F931F93CF93DF936C017A018B01C0E063
:10313000D0E0CE15DF0589F0D8016D918D01D60163
:10314000ED91FC910190F081E02DC6010995892B4C
:1031500011F47E0102C02196ECCFC701DF91CF911F
:103160001F910F91FF90EF90DF90CF900895FC0199
:10317000538D448D252F30E0842F90E0821B930BDC
:10318000541710F0CF96089501970895FC01918D82
:10319000828D981761F0828DDF01A80FB11D5D96B9
:1031A0008C91928D9F5F9F73928F90E008958FEF27
:1031B0009FEF0895FC01918D828D981731F0828DDB
:1031C000E80FF11D858D90E008958FEF9FEF089532
:1031D000FC01918D228D892F90E0805C9F4F821B96
:1031E00091098F73992708958AEA96E00E94E8185A
:1031F00021E0892B09F420E0822F0895FC01848DC1
:10320000DF01A80FB11DA35ABF4F2C91848D90E010
:1032100001968F739927848FA689B7892C93A089EB
:10322000B1898C9180648C93938D848D981306C0A2
:103230000288F389E02D80818F7D80830895EF924D
:10324000FF920F931F93CF93DF93EC0181E0888F60
:103250009B8D8C8D981305C0E889F989808185FD47
:1032600024C0F62E0B8D10E00F5F1F4F0F73112738
:10327000E02E8C8DE8120CC00FB607FCFACFE8895F
:10328000F989808185FFF5CFCE010E94FE18F1CF2C
:103290008B8DFE01E80FF11DE35AFF4FF0820B8F7B
:1032A000EA89FB898081806207C0EE89FF8960839B
:1032B000E889F98980818064808381E090E0DF91F2
:1032C000CF911F910F91FF90EF900895CF93DF93CF
:1032D000EC01888D8823C9F0EA89FB89808185FD0E
:1032E00005C0A889B9898C9186FD0FC00FB607FC6F
:1032F000F5CF808185FFF2CFA889B9898C9185FFB0
:10330000EDCFCE010E94FE18E7CFDF91CF91089557
:1033100080E090E0892B29F00E94F41881110C9430
:1033200000000895833081F028F4813099F08230D4
:10333000A1F008958730A9F08830B9F08430D1F435
:10334000809180008F7D03C0809180008F77809373
:103350008000089584B58F7702C084B58F7D84BDC9
:1033600008958091B0008F7703C08091B0008F7D69
:103370008093B00008953FB7F894809155069091DE
:103380005606A0915706B091580626B5A89B05C0D1
:103390002F3F19F00196A11DB11D3FBFBA2FA92FD4
:1033A000982F8827820F911DA11DB11DBC01CD0151
:1033B00042E0660F771F881F991F4A95D1F708953D
:1033C0000F931F93CF93DF93DC0155968C91559704
:1033D000823071F0833009F1813009F08CC014968D
:1033E000ED91FC911597E41BF50BE21BF30B20C04C
:1033F0001496ED91FC911597CF01861B970BBC019C
:10340000615071091696ED91FC911797CF01841BBD
:10341000950BAC01421B530B6EC01696ED91FC91BF
:103420001797CF01861B970BBC0161507109FA01F8
:1034300077FD1BC116968D919C9117976817790798
:103440000CF013C1F7FF04C02E0F3F1FE0E0F0E0C7
:1034500014968D919C911597AF01420F531F8417BD
:1034600095071CF49C012E1B3F0B121613060CF043
:10347000FCC0CB0177FD079643E0959587954A956B
:10348000E1F79695982F882797958795E80FF91F6C
:10349000E75DFE4F6770772781E090E001C0880FFD
:1034A0006A95EAF7482F0130110541F088F00230A3
:1034B000110509F0DAC02E0F3F1F15C02E0F3F1F58
:1034C000E217F30709F4D1C08081842B8193F8CFF0
:1034D00080952E0F3F1FE217F30709F4C6C09081B5
:1034E00098239193F8CFE217F30709F4BEC08081C7
:1034F00084278193F8CF77FDB8C014968D919C9165
:103500001597681779070CF0B0C057FF04C0240F57
:10351000351F40E050E016968D919C911797FA0167
:10352000E20FF31F8E179F071CF49C01241B350B21
:10353000121613060CF099C0A22F842F869586953B
:10354000869590E8899F600D711D1124FB01E75D50
:10355000FE4F4770A9F198E0941B492F50E0EA0113
:10356000CF5CDA4F8881291790F4421B51092FEF65
:1035700030E002C0359527954A95E2F78223013065
:10358000110541F068F00230110589F06EC001307C
:10359000110519F42081822B0CC00130110520F493
:1035A00080952081822305C00230110531F42081ED
:1035B00082278083A91708F458C0A91BE058FF4F41
:1035C000A83048F10230110559F4EF018A2F988193
:1035D00090959883C058DF4F88508830C0F730C02E
:1035E00081E00130110509F080E08195EF019A2F0B
:1035F0008883C058DF4F98509830D0F788EF8A0FF3
:1036000086958695869590E8899FE00DF11D112499
:10361000E058FF4FA770AA2341F1B0E0A75DBA4F71
:103620008C910130110529F038F002301105D1F0EC
:103630001CC09081892B18C080959081892314C06B
:1036400088EF8A0F86958695869590E8899FE00D8C
:10365000F11D1124E058FF4FA77039F0B0E0A75DCD
:10366000BA4F8C91908189278083DF91CF911F91F0
:103670000F9108950E94D33ADC01ED91FC910190E5
:10368000F081E02D0994EF92FF920F931F93CF9357
:10369000DF938C017B01C0E0D0E0F701EC0FFD1F50
:1036A0006491662361F0D801ED91FC910190F08165
:1036B000E02DC8010995892B11F02196EECFCE019E
:1036C000DF91CF911F910F91FF90EF9008956115B9
:1036D000710579F0FB0101900020E9F73197AF0106
:1036E000461B570BDC01ED91FC910280F381E02D2C
:1036F000099480E090E008954F925F926F927F92DC
:10370000EF92FF920F931F93CF93DF93CDB7DEB766
:10371000A1970FB6F894DEBF0FBECDBF7C01FA01B2
:10372000CB0119A2223008F42AE08E010F5D1F4F51
:10373000422E512C612C712CBF01A30192010E94D9
:10374000723AF901CA01015011096A3014F4605D3E
:1037500001C0695CD8016C93232B242B252B61F7C6
:10376000B801C7010E94671BA1960FB6F894DEBF8F
:103770000FBECDBFDF91CF911F910F91FF90EF90C2
:103780007F906F905F904F9008954F925F926F92ED
:103790007F928F929F92AF92BF92CF92DF92EF92E1
:1037A000FF92CF93DF93EC016A017B01B22E9A0165
:1037B000AB01C701B6010E948839882319F067EB75
:1037C00075E027C026013701E89477F82FEF3FEF27
:1037D0004FE75FE7C301B2010E94883981110DC034
:1037E0002FEF3FEF4FE75FE7C301B2010E941737AA
:1037F00018161CF46BEB75E00CC02FEF3FEF4FE792
:103800005FE4C701B6010E94763818169CF46FEB8E
:1038100075E0CE01DF91CF91FF90EF90DF90CF90D8
:10382000BF90AF909F908F907F906F905F904F90E0
:103830000C94671B2FEF3FEF4FE75FECC701B6011A
:103840000E94173787FDE3CF20E030E0A901C701D0
:10385000B6010E94173787FF0AC06DE2CE010E94B1
:103860003C1B4C01F7FAF094F7F8F09402C0812C5D
:10387000912CA12C60E070E080E09FE3AB1441F05C
:1038800020E030E040E251E40E941C37A394F6CFE0
:103890009B01AC01C701B6010E94AB362B013C0174
:1038A0000E9495376B017C010E94C4379B01AC01DB
:1038B000C301B2010E94AA362B013C012AE0B701E4
:1038C000A601CE010E947C1B7C01E80CF91CBB20E8
:1038D00031F06EE2CE010E943C1BE80EF91EDB2C9B
:1038E000DD2029F120E030E040E251E4C301B201E3
:1038F0000E94CB382B013C010E9495374B01A12C33
:10390000B12C2AE0B501A401CE010E947C1BE80E77
:10391000F91EC501B4010E94C4379B01AC01C3016B
:10392000B2010E94AA362B013C01DA94D9CFC7011B
:10393000DF91CF91FF90EF90DF90CF90BF90AF904D
:103940009F908F907F906F905F904F9008951F92FF
:103950000F920FB60F9211242F933F934F935F93C3
:103960006F937F938F939F93AF93BF93EF93FF9347
:103970008AEA96E00E94FE18FF91EF91BF91AF9105
:103980009F918F917F916F915F914F913F912F9177
:103990000F900FBE0F901F9018951F920F920FB6A9
:1039A0000F9211242F938F939F93EF93FF93E091A6
:1039B000BA06F091BB068081E091C006F091C10685
:1039C00082FD12C090818091C3068F5F8F7320911A
:1039D000C406821751F0E091C306F0E0E655F94FB6
:1039E000958F8093C30601C08081FF91EF919F91D5
:1039F0008F912F910F900FBE0F901F901895CF931E
:103A0000DF93282F30E0F901E550FB4E8491F90156
:103A1000E15FFA4ED491F901E35DFA4EC491CC23F3
:103A200091F081110E949219EC2FF0E0EE0FFF1F30
:103A3000EF50FB4EA591B491EC91ED2381E090E025
:103A400021F480E002C080E090E0DF91CF91089502
:103A50001F93CF93DF93282F30E0F901E550FB4E01
:103A60008491F901E15FFA4ED491F901E35DFA4ED8
:103A7000C491CC23C9F0162F81110E949219EC2F0A
:103A8000F0E0EE0FFF1FED5DFA4EA591B4918FB7F8
:103A9000F894111105C09C91ED2FE095E92302C027
:103AA000EC91ED2BEC938FBFDF91CF911F91089597
:103AB00090912801981324C0E1E4F5E1E4919FEF8F
:103AC00090932801E130B9F098F0E230C9F4909178
:103AD00070009D7F9093700091E09093B000909162
:103AE000B100987F94609093B1001092B30008C029
:103AF00010926E0005C090916F009D7F90936F00B3
:103B000060E00C94281D1F920F920FB60F921124A3
:103B10002F933F934F935F936F937F938F939F93D5
:103B2000AF93BF93EF93FF9380915C0690915D06F6
:103B3000A0915E06B0915F06892B8A2B8B2B51F1E9
:103B400080915906E0915A06F0915B069081892791
:103B5000808380915C0690915D06A0915E06B09195
:103B60005F06181619061A061B06C4F480915C0637
:103B700090915D06A0915E06B0915F060197A10944
:103B8000B10980935C0690935D06A0935E06B093A6
:103B90005F0604C0809128010E94581DFF91EF919B
:103BA000BF91AF919F918F917F916F915F914F9155
:103BB0003F912F910F900FBE0F901F901895CF93AC
:103BC000DF9390E0FC01E15FFA4E2491FC01E35D9C
:103BD000FA4E8491882361F190E0880F991FFC01CF
:103BE000E651FF4FC591D491FC01ED5DFA4EA591D0
:103BF000B491611109C09FB7F89488812095822300
:103C00008883EC912E230BC0623061F49FB7F89447
:103C10003881822F809583238883EC912E2B2C93DF
:103C20009FBF06C08FB7F894E8812E2B28838FBFE3
:103C3000DF91CF9108958E3008F08E5087708064A8
:103C400080937C0080917A00806480937A008091D8
:103C50007A0086FDFCCF809178002091790090E079
:103C6000922B08958F929F92AF92BF92CF92DF9244
:103C7000EF92FF926B017C010E94BB194B015C012A
:103C8000C114D104E104F104F1F00E94BB19DC017C
:103C9000CB0188199909AA09BB09883E9340A1055F
:103CA000B10570F321E0C21AD108E108F10888EEED
:103CB000880E83E0981EA11CB11CC114D104E1043C
:103CC000F10419F7DDCFFF90EF90DF90CF90BF9018
:103CD000AF909F908F9008951F920F920FB60F9202
:103CE00011242F933F938F939F93AF93BF93809112
:103CF000510690915206A0915306B091540630910E
:103D0000500623E0230F2D3720F40196A11DB11D8D
:103D100005C026E8230F0296A11DB11D2093500671
:103D20008093510690935206A0935306B093540685
:103D30008091550690915606A0915706B09158066D
:103D40000196A11DB11D8093550690935606A09330
:103D50005706B0935806BF91AF919F918F913F91B5
:103D60002F910F900FBE0F901F9018958F929F92DA
:103D7000AF92BF92CF92DF92EF92FF92FC018081CF
:103D80000E941B1E9C01990F440B550B60E070E4D0
:103D90008CE990E00E94943ACA01B90160517742DF
:103DA000810991090E94C6370E9483386B017C010A
:103DB00023E73FE745E759E30E94CB382BEE3FEF7F
:103DC00043E95AE30E94AB364B015C0129E537E435
:103DD0004CEB53E3C701B6010E94CB38A701960113
:103DE0000E94CB38A70196010E94CB389B01AC0101
:103DF000C501B4010E94AB369B01AC0160E070E0EC
:103E000080E89FE30E941C3723E333E948E853E44A
:103E10000E94AA36FF90EF90DF90CF90BF90AF90B6
:103E20009F908F9008952091A9069091A307213229
:103E300008F04AC0809186068111FCCF32E03093B1
:103E4000860631E0309385063FEF3093840610926A
:103E5000830620938206A9E8B6E042E656E0FA011E
:103E60003E2F341B321718F43D913193F9CF109245
:103E7000610620916106990F922B909361069091B3
:103E80006006913061F41092600690916106909303
:103E9000BB009091BC0093FDF8CF95EC01C095EE6E
:103EA0009093BC00909186069230E1F39091840645
:103EB0009F3F79F080918406803241F080918406A2
:103EC000803331F084E005C081E003C082E001C0AE
:103ED00083E0109288061092A90610928706089532
:103EE00090918207992339F08EBD00000DB407FE32
:103EF000FDCF8EB5089528E030E040E8E0918507D9
:103F0000F0918607508190918C079095952390832E
:103F1000E0918307F091840790918B07542F5823E9
:103F200019F05081952B03C0508190959523908373
:103F3000E0918507F0918607508190918C07952B31
:103F40009083469521503109C9F6089580E094E0A8
:103F5000E9E2F1E0DF019C011D9221503040E1F7E0
:103F600008955F926F927F928F929F92AF92BF92CD
:103F7000CF92DF92EF92FF920F931F93CF93DF9335
:103F80005C016B014A013B0187E0680E711C77FE02
:103F900004C03B018EE0680E711C93E07594679439
:103FA0009A95E1F7E12CF12C00E010E0512C081576
:103FB000190554F5C0E0D0E0CC15DD0504F5CE01BF
:103FC00087709927892B11F0550C0DC0FE01D7FD84
:103FD000379683E0F595E7958A95E1F7EE0DFF1D9D
:103FE000EA0DFB1D549057FE08C021E030E0A80107
:103FF000BE0181E697E00E94CC0A2196DDCF0F5FDB
:104000001F4FE60CF71CD3CFDF91CF911F910F917B
:10401000FF90EF90DF90CF90BF90AF909F908F90E8
:104020007F906F905F900895242FAB01BC0181E6D3
:1040300097E00C94C51BCF93C82F80917D078F3FCD
:1040400059F1E0918707F0918807808190918D0761
:10405000982B9083E0918907F0918A0720819091B5
:104060008E07909592239083E0918707F0918807BF
:10407000208190918D079095922390838C2F0E94A0
:10408000701FE0918707F0918807908180918D07DC
:10409000892B8083CF91089580917B0791E0909345
:1040A00087068093A307109288061092A90660E005
:1040B00087E497E00E94060C6C2F87E497E00E944B
:1040C000060CCF910C94131FEF92FF920F931F9346
:1040D000CF93DF9381E20E941B2080E00E941B208F
:1040E0008FE70E941B2082E20E941B2080E00E943A
:1040F0001B2087E00E941B2080917D078F3F79F174
:10410000E0918707F0918807908180918D07892B36
:104110008083E0918907F0918A07908180918E07D2
:10412000892B8083E0918707F091880790818091A7
:104130008D07809589238083C9E2D1E089910E940F
:10414000701F85E0C932D807C9F7E0918707F09161
:104150008807908180918D07892B808330C0F090F3
:10416000B8008CE08093B800C9E2D1E0EE24E3947B
:1041700080917B07E09287068093A30710928806C0
:104180001092A90660E487E497E00E94060C00E024
:1041900010E0FE01E00FF11F608187E497E00E94CC
:1041A000060C0F5F1F4F0031110599F70E94131F76
:1041B000609685E0C932D807D9F6F092B800DF9151
:1041C000CF911F910F91FF90EF9008954F925F92C2
:1041D0006F927F92AF92BF92CF92DF92EF92FF9257
:1041E0000F931F93CF93DF9305E010E0C12CD12CE8
:1041F0007601AA24AA9483E0B82E81E10E941B1EB6
:10420000EC01B501681B790B072E000C880B990B8C
:104210000E94C63720E030E040EA50E40E94CB38EC
:104220002B013C01BE01DD0F880B990B0E94C637A4
:104230009B01AC01C301B2010E941C379B01AC0180
:10424000C701B6010E94AB366B017C0162E370E0EE
:1042500080E090E00E94321E0150110971F620E0CA
:1042600030E040EA50E4C701B6010E941C37DF91FC
:10427000CF911F910F91FF90EF90DF90CF90BF9063
:10428000AF907F906F905F904F900895CF93DF93A2
:10429000BC018AEA96E00E94671BEC0163EC75E0C2
:1042A0008AEA96E00E94671B8C0F9D1FDF91CF91D9
:1042B0000895CF92DF92EF92FF920F931F93CF93C7
:1042C000DF9377FF1DC06A017B01EC016DE20E9464
:1042D0003C1B8C0144275527BA014C195D096E0916
:1042E0007F092AE0CE010E947C1B800F911FDF9185
:1042F000CF911F910F91FF90EF90DF90CF90089595
:104300002AE0DF91CF911F910F91FF90EF90DF9006
:10431000CF900C947C1BCF93DF93AB01BC0122E0C8
:104320008AEA96E00E94C51BEC0163EC75E08AEA1C
:1043300096E00E94671B8C0F9D1FDF91CF9108951F
:104340003F924F925F926F927F928F929F92AF9225
:10435000BF92CF92DF92EF92FF920F931F93CF9372
:10436000DF9300D000D0CDB7DEB7209128012630F2
:1043700021F02F3F09F02CC204C0E1E4F5E13490B4
:1043800076C026E020932801E1E4F5E1E491EF3FD7
:1043900009F41EC2E13011F1E23009F443C0E11129
:1043A00065C014BC15BC24B5226024BD25B52160B0
:1043B00025BDE3E3F5E1E491F0E0EE0FFF1FED5DD5
:1043C000FA4E2591349130939A0720939907E5E1AD
:1043D000F5E1E491E0939807312C4BC010928000F6
:1043E000109281002091810028602093810020910B
:1043F0008100216020938100E3E3F5E1E491F0E0A6
:10440000EE0FFF1FED5DFA4E259134913093970723
:1044100020939607E5E1F5E1E491E09395073324D5
:10442000339427C01092B0001092B1002091B000D8
:1044300022602093B0002091B10021602093B10050
:10444000E3E3F5E1E491F0E0EE0FFF1FED5DFA4EDE
:104450002591349130935B0620935A06E5E1F5E10E
:10446000E491E0935906B2E03B2E03C03E2E37FCA8
:10447000AFC12A013B018C0161E086E00E94DF1D93
:104480004801A12CB12C832D8D7F09F0BBC060E0C9
:1044900072E18AE790E0A50194010E94943A298391
:1044A0003A834B835C8369017A0121E0C21AD10807
:1044B000E108F1088FEFC816D104E104F10409F016
:1044C00008F44CC060E472E48FE090E0A501940130
:1044D0000E94943A69017A01E1E0CE1AD108E1081C
:1044E000F108F2E03F1220C02FEFC216D104E10420
:1044F000F10409F008F46AC160E970ED83E090E02E
:10450000A50194010E94943A69017A0181E0C81AD8
:10451000D108E108F108EFEFCE16D104E104F1046F
:1045200009F0D0F583E067C0FFEFCF16D104E104B6
:10453000F104B1F0A8F068E478EE81E090E0A50124
:1045400094010E94943A69017A0181E0C81AD10865
:10455000E108F108332009F4DFC02FC181E001C078
:1045600082E03320A1F047C089819A81AB81BC8170
:104570002AE0B595A795979587952A95D1F76C016F
:104580007D0121E0C21AD108E108F10885E095B566
:10459000987F892B85BD6FC068E478EE81E090E05C
:1045A000A50194010E94943A69017A01F1E0CF1AC1
:1045B000D108E108F1082FEFC216D104E104F1049B
:1045C00009F008F4A7C064E274EF80E090E0A50170
:1045D00094010E94943A69017A01E1E0CE1AD1086F
:1045E000E108F108FFEFCF16D104E104F10411F066
:1045F00008F0B4C085E09091B100987F892B80933A
:10460000B10039C060E072E18AE790E0A501940151
:104610000E94943A69017A0181E0C81AD108E10840
:10462000F108C114D104E1E0EE06F10488F068E479
:1046300078EE81E090E0A50194010E94943A69012E
:104640007A01F1E0CF1AD108E108F10893E001C046
:1046500091E021E032120FC080918100887F892B88
:1046600080938100411451046104710449F42FEFD7
:104670003FEFA9012DC0411451046104710471F090
:10468000D801AA0FBB1FA30192010E94B33A28EEE2
:1046900033E040E050E00E94723A03C02FEF3FEF5A
:1046A000A90181E03816A1F0E2E03E1619F13110BF
:1046B0008FC0C7BC20939F073093A0074093A107EA
:1046C0005093A20780916E00826080936E0080C03C
:1046D000D0928900C092880020939B0730939C075A
:1046E00040939D0750939E0780916F008260809356
:1046F0006F006EC0C092B30020935C0630935D06DD
:1047000040935E0650935F068091700082608093B4
:1047100070005EC084E06FCFFFEFCF16D104E104DC
:10472000F104D1F0C8F062E17AE780E090E0A50101
:1047300094010E94943A69017A0181E0C81AD10873
:10474000E108F108EFEFCE16D104E104F10411F015
:1047500008F00ACF84E01BCF83E019CF62E17AE74B
:1047600080E090E0A50194010E94943A69017A01E9
:1047700081E0C81AD108E108F108EFEFCE16D104A4
:10478000E104F104C1F0B8F089819A81AB81BC8168
:104790004AE0B595A795979587954A95D1F76C010D
:1047A0007D0121E0C21AD108E108F108332009F4A3
:1047B000EDCE87E020CF86E0D4CEFFEFCF16D10438
:1047C000E104F10409F050F684E0CBCE82E013CF8F
:1047D0000F900F900F900F90DF91CF911F910F913D
:1047E000FF90EF90DF90CF90BF90AF909F908F9011
:1047F0007F906F905F904F903F900895CF93DF939D
:10480000AC01990F660B770B8AEA96E00E9459215A
:10481000EC0163EC75E08AEA96E00E94671B8C0F5E
:104820009D1FDF91CF910895CF93DF93BC018AEA5A
:1048300096E00E94431BEC0163EC75E08AEA96E087
:104840000E94671B8C0F9D1FDF91CF910895462F0B
:1048500050E060E070E02AE00C947C1BCF93DF9383
:10486000482F50E060E070E02AE08AEA96E00E947B
:104870007C1BEC0163EC75E08AEA96E00E94671B02
:104880008C0F9D1FDF91CF910895CF93DF931F92DF
:10489000CDB7DEB7789484B5826084BD84B581607D
:1048A00084BD85B5826085BD85B5816085BD8091FB
:1048B0006E00816080936E00109281008091810073
:1048C000826080938100809181008160809381006B
:1048D000809180008160809380008091B10084602D
:1048E0008093B1008091B00081608093B00080918E
:1048F0007A00846080937A0080917A00826080934D
:104900007A0080917A00816080937A0080917A00A9
:10491000806880937A001092C100E091BA06F0910D
:10492000BB0682E08083E091B606F091B706108264
:10493000E091B806F091B90680E180831092C2063A
:10494000E091BE06F091BF0686E08083E091BC0650
:10495000F091BD06808180618083E091BC06F0917A
:10496000BD06808188608083E091BC06F091BD0621
:10497000808180688083E091BC06F091BD068081D3
:104980008F7D808361E083E00E94DF1D61E086E02F
:104990000E94DF1D60E082E00E94DF1D60E089E090
:1049A0000E94DF1D60E088E00E94DF1D60E08CE077
:1049B0000E94DF1D60E08BE00E94DF1D60E08AE066
:1049C0000E94DF1D60E087E00E94DF1D80915F078D
:1049D000909160078F3F910529F460E080E090E0BE
:1049E0000E94B00D87E00E94FF1C8093DA058130A1
:1049F00009F07CC081E10E941B1E9093D905809331
:104A0000D8058EED95E00E94142467EC75E08AEAE3
:104A100096E00E94431B8091D8059091D9050E9491
:104A2000FE230E94E62020E030E040E251E40E94B4
:104A30001C3748E151E00E9476112B013C010E9495
:104A4000E62020E030E040E251E40E941C3740E0E4
:104A500051E00E9476114B015C010E94E62020E0AB
:104A600030E040E251E40E941C374CE051E00E94EB
:104A700076116B017C0189E895E00E9446216FE97F
:104A800075E08AEA96E00E94671BB301A2018AEAF8
:104A900096E00E94592185EA95E00E9446216AEA43
:104AA00075E08AEA96E00E94671BB501A4018AEAD4
:104AB00096E00E94592185EA95E00E9446216FEA1E
:104AC00075E08AEA96E00E94671BB701A6018AEAB0
:104AD00096E00E94592185EA95E00E94462168EC03
:104AE00070E080E090E00E94321E04C08CEA95E005
:104AF0000E94142482E00E94FF1C682F8093D70537
:104B000089E069830E94FF1C8093D60569818AEA47
:104B100096E00E9427246091D6058AEA96E00E94DA
:104B2000272484E090E00E94CC0D90E09093270130
:104B30008093260168E975E08AEA96E00E94431BAB
:104B400080912601909127010E94FE238091D70534
:104B5000811109C08091D605811113C010922701DF
:104B60001092260116C08130A1F48091D6058111E2
:104B700003C081E090E009C0813059F482E090E008
:104B800004C0813031F483E090E09093270180935A
:104B900026016091260184E090E00E94B00D64E857
:104BA00075E08AEA96E00E94431B8091260190916D
:104BB00027010E94FE2382E080937C078CE3809390
:104BC0007B0780917D078F3F09F4BDC061E0809134
:104BD0007F070E94DF1D61E0809181070E94DF1D39
:104BE00080918107082E000C990BFC01E35DFA4EC1
:104BF000E491F0E0EE0FFF1FED5DFA4E2591349148
:104C00003093880720938707FC01E15FFA4EE49117
:104C1000E0938D0780917F07082E000C990BFC0113
:104C2000E35DFA4EE491F0E0EE0FFF1FED5DFA4E0A
:104C30002591349130938A0720938907FC01E15F25
:104C4000FA4EE491E0938E078091820781113EC075
:104C500061E080917D070E94DF1D61E080917E0709
:104C60000E94DF1D80917E07082E000C990BFC012D
:104C7000E35DFA4EE491F0E0EE0FFF1FED5DFA4EBA
:104C8000259134913093860720938507FC01E15FDD
:104C9000FA4EE491E0938C0780917D07082E000C7A
:104CA000990BFC01E35DFA4EE491F0E0EE0FFF1F7B
:104CB000ED5DFA4E2591349130938407209383075C
:104CC000FC01E15FFA4EE491E0938B07809182074B
:104CD000882309F45FC01FB7F8948091D50581112E
:104CE00027C0E7E3F5E18491E9E1F5E19491E82F4C
:104CF000F0E0EE0FFF1FE651FF4FA591B491EC914C
:104D0000E92321F461E08AE00E94281D61E08AE045
:104D10000E94DF1D8CB580618CBD8CB580648CBD1C
:104D200061E08DE00E94DF1D61E08BE00E94DF1DED
:104D30008091D5058F5F8093D5051FBF80E58CBD21
:104D400081E08DBD27C01092C7051092C605109254
:104D500088061092A9061092860681E08093850647
:104D60001092600661E082E10E94281D61E083E10B
:104D70000E94281D8091B9008E7F8093B900809198
:104D8000B9008D7F8093B90088E48093B80085E4F2
:104D90008093BC008091800787FD1EC061E00E9467
:104DA000DF1D61E0809180070E94281D61E070E0B6
:104DB00080E090E00E94321E60E0809180070E94B7
:104DC000281D6AE070E080E090E00E94321E61E001
:104DD000809180070E94281D8EEA0E941B2085ED8D
:104DE0000E941B2080E80E941B2088EA0E941B2052
:104DF0008FE30E941B2083ED0E941B2080E00E9415
:104E00001B2080E40E941B208DE80E941B2084E16F
:104E10000E941B2080E20E941B2080E00E941B2039
:104E200081EA0E941B2088EC0E941B208AED0E94D0
:104E30001B2082E10E941B2081E80E941B208FEC36
:104E40000E941B2089ED0E941B2081EF0E941B20E5
:104E50008BED0E941B2080E40E941B2084EA0E94AC
:104E60001B2086EA0E941B208EE20E941B208FEAF4
:104E70000E941B200E94A61F82E08093750781E09C
:104E800090E09093740780937307909372078093D8
:104E900071070E9464200E94A61F4AE350E061E768
:104EA00070E084EF90E00E94B11F0E94642060EDEA
:104EB00077E080E090E00E94321E60ED77E080E0D5
:104EC00090E00E94321E0E94A61F81E08093750729
:104ED00010926E0710926D071092700710926F0774
:104EE0006BE175E081E697E00E94431B10926E072C
:104EF00010926D078FE090E09093700780936F079A
:104F000067E075E081E697E00E94431B10926E0710
:104F100010926D078EE190E09093700780936F0779
:104F200060E075E081E697E00E94431B4091260116
:104F300050912701052E000C660B770B81E697E058
:104F40000E94592110926E0710926D078DE290E039
:104F50009093700780936F0761EF74E081E697E0AC
:104F60000E94431B8091DA05813019F469EE74E0E8
:104F700002C064EE74E081E697E00E94431B109249
:104F80006E0710926D0787E390E09093700780930F
:104F90006F076CED74E081E697E00E94431B40913F
:104FA0005F0750916007052E000C660B770B81E6BA
:104FB00097E00E9459210E94642060ED77E080E034
:104FC00090E00E94321E0E94A61F88E595E00E9494
:104FD000142480912601909127010E945E0E0E9468
:104FE000CE0D882329F083E395E00E941424F7CFA7
:104FF00086E295E00E94142464EF71E080E090E086
:105000000E94321E88E00E94FF1C0E94FE2320E0C6
:1050100030E04FE753E460915B0770915C0780914B
:105020005D0790915E070E941737811111C080E0E3
:1050300090E0AAE7B3E480935B0790935C07A093AA
:105040005D07B0935E076AEF81E090E00E94B00DCB
:1050500020E030E04FE753E4609157077091580724
:105060008091590790915A070E941737811111C0FA
:1050700080E090E0AAE7B3E4809357079093580745
:10508000A0935907B0935A076AEF82E090E00E941C
:10509000B00D20E030E04FE753E46091530770918A
:1050A000540780915507909156070E941737811138
:1050B00011C080E090E0A0EAB2E48093530790939F
:1050C0005407A0935507B093560760E583E090E03E
:1050D0000E94B00D0E94A61F44E1642E712C8091A5
:1050E0005F0790916007019709F077C010926E07F3
:1050F00010926D071092700710926F0760E476E0CF
:1051000081E697E00E94431B10926E0710926D0794
:105110007092700760926F076EE276E081E697E02A
:105120000E94431B10926E0710926D078EE190E073
:105130009093700780936F0767E176E081E697E0D0
:105140000E94431B0E94642064E670E080E090E0CF
:105150000E94321E88E00E94FF1C019709F0BFCF19
:105160006FEF75E08AEA96E00E94431B1092600799
:1051700010925F0760E080E090E00E94B00D109216
:10518000C8051092E5051092E6051092E7050E9409
:10519000A61F8EE190E090936E0780936D071092AA
:1051A000700710926F0765EF75E081E697E00E9447
:1051B000431B0E94642068EC70E080E090E00E9455
:1051C000321E0E94DA0E0E94480F64EF71E080E008
:1051D00090E00E94321E0E9464208091DA058130A6
:1051E000F1F581E10E941B1E9093D9058093D805AB
:1051F00062E776E08AEA96E00E94431B8091D80538
:105200009091D9050E94FE238091D8059091D905EF
:1052100081399140BCF063E576E08AEA96E00E942D
:10522000431B81E090E09093600780935F070E94AA
:10523000E81048EC50E060E070E088EE93E00E94F7
:10524000A02107C01092600710925F0786E00E94BD
:10525000581D64E670E080E090E00E94321E80916C
:105260002601909127010E945E0E0E94480F64EF74
:1052700071E080E090E00E94321E0E9464208091E4
:1052800026019091270181309105B1F11CF4892B01
:1052900049F0FEC08230910509F472C0039709F409
:1052A000B3C0F6C020915B0730915C0740915D0769
:1052B00050915E076091D1057091D2058091D30520
:1052C0009091D4050E94763818162CF48091E70549
:1052D0008F5F8093E7058091E705853008F4D8C09B
:1052E00081E08093C80581E090E09093600780930F
:1052F0005F070E94E810CCC020915B0730915C07EB
:1053000040915D0750915E076091D1057091D20583
:105310008091D3059091D4050E94763818162CF40C
:105320008091E7058F5F8093E7058091E7058530E1
:1053300058F081E08093C80581E090E09093600789
:1053400080935F070E94E81020915707309158071B
:105350004091590750915A076091CD057091CE0543
:105360008091CF059091D0050E94763818162CF4C4
:105370008091E6058F5F8093E6058091E605ADCFCD
:1053800020915B0730915C0740915D0750915E076B
:105390006091D1057091D2058091D3059091D4058B
:1053A0000E94763818162CF48091E7058F5F809361
:1053B000E7058091E705853058F081E08093C805C6
:1053C00081E090E09093600780935F070E94E8106F
:1053D00020915707309158074091590750915A072B
:1053E0006091CD057091CE058091CF059091D0054B
:1053F0000E94763818162CF48091E6058F5F809312
:10540000E6058091E6051BC020915B0730915C07A3
:1054100040915D0750915E076091D1057091D20572
:105420008091D3059091D4050E94763818162CF4FB
:105430008091E7058F5F8093E7058091E7058530D0
:1054400058F081E08093C80581E090E09093600778
:1054500080935F070E94E810209153073091540712
:1054600040915507509156076091C9057091CA0542
:105470008091CB059091CC050E94763818162CF4BB
:105480008091E5058F5F8093E5058091E50525CF47
:105490008BE00E94FF1C892B09F4AFC00E94BC0E58
:1054A0006EEE79E08AEA96E00E94431B8091260125
:1054B000909127010E94FE2380912601909127015F
:1054C0008130910511F40C94BC3494F5892B11F0C2
:1054D0000C94C2356BED79E08AEA96E00E94431B9A
:1054E00060915B0770915C0780915D0790915E070A
:1054F0000E948B216AEC79E08AEA96E00E94431BC5
:105500006091D1057091D2058091D3059091D40519
:105510000E948B2160915B0770915C0780915D0711
:1055200090915E070E94953781E090E00C94C03521
:105530008230910511F40C941735039711F00C94F7
:10554000C23566ED78E08AEA96E00E94431B6091DE
:105550005B0770915C0780915D0790915E070E94E8
:105560008B2163EC78E08AEA96E00E94431B60910D
:1055700053077091540780915507909156070E94E8
:105580008B2162EB78E08AEA96E00E94431B6091EF
:10559000D1057091D2058091D3059091D4050E94D8
:1055A0008B2161EA78E08AEA96E00E94431B6091D1
:1055B000C9057091CA058091CB059091CC050E94D8
:1055C0008B2160915B0770915C0780915D079091E2
:1055D0005E070E94953781E090E00E94B00D6091D7
:1055E00053077091540780915507909156070E9478
:1055F000953783E090E00C94C03581E08093E80516
:10560000332433948FE0E82EF12C95E0C92ED12C71
:1056100029E1A22EB12C37E3432E512C8090260194
:10562000909027018114910409F08CC1809125018B
:10563000813009F0B6C0809375070E94A61F1092B2
:105640006E0710926D071092700710926F076091AD
:10565000240181E697E00E94272481E090E0909366
:105660007207809371071092740710927307F0927B
:105670006E07E0926D071092700710926F076AE64E
:1056800078E081E697E00E94431B50926E074092BB
:105690006D071092700710926F076091250181E6E7
:1056A00097E00E94272401E010E028E730E04AE07C
:1056B00050E060E070E081E697E00E949A118091EE
:1056C0002401813049F410927207109271071093EF
:1056D0007407009373070AC081E090E0909372070B
:1056E00080937107109274071092730710926E07DF
:1056F00010926D07F0927007E0926F0768E578E00E
:1057000081E697E00E94431B80912401823059F486
:10571000109272071092710781E090E090937407E5
:10572000809373070AC081E090E0909372078093A2
:105730007107109274071092730710926E071092FF
:105740006D07B0927007A0926F076EE478E081E673
:1057500097E00E94431B80912401833059F41092FA
:1057600072071092710781E090E090937407809324
:1057700073070AC081E090E09093720780937107ED
:10578000109274071092730710926E0710926D07B3
:1057900083E290E09093700780936F0763E478E072
:1057A000B5C1843109F053C08AE08093240130925E
:1057B00075070E94A61F81E090E090937207809386
:1057C00071071092740710927307F0926E07E092BF
:1057D0006D071092700710926F076AE378E081E618
:1057E00097E00E94431B01E010E023E530E04AE02F
:1057F00050E060E070E081E697E00E949A11D0925C
:105800006E07C0926D07F0927007E0926F0760E339
:1058100078E081E697E00E94431B82E08093750761
:10582000D0926E07C0926D07B0927007A0926F077A
:1058300060915B0770915C0780915D0790915E07B6
:1058400041E050E00E9414200E94642020C6843071
:1058500009F041C0309275070E94A61F81E090E0D8
:1058600090937207809371071092740710927307D8
:10587000F0926E07E0926D071092700710926F071A
:1058800064E278E081E697E00E94431B01E010E0CB
:1058900023E530E04AE050E060E070E081E697E028
:1058A0000E949A1182E080937507D0926E07C09291
:1058B0006D077092700760926F078091E0058823F2
:1058C00019F060E278E002C06DE178E081E697E0EF
:1058D0000E94431BDCC5853009F0D9C5309275079D
:1058E0000E94A61F81E090E0909372078093710759
:1058F0001092740710927307F0926E07E0926D0792
:105900001092700710926F0763E178E081E697E0EC
:105910000E94431B01E010E023E530E04AE050E044
:1059200060E070E081E697E00E949A1182E0809347
:105930007507D0926E07C0926D07709270076092E3
:105940006F07A5C591E08916910409F068C180919F
:105950002501813009F0DFC0809375070E94A61FE2
:1059600010926E0710926D071092700710926F07D9
:105970006091240181E697E00E94272490927207AB
:10598000809271071092740710927307F0926E075D
:10599000E0926D071092700710926F076EE078E04A
:1059A00081E697E00E94431B50926E0740926D077C
:1059B0001092700710926F076091250181E697E0C1
:1059C0000E94272401E010E028E730E04AE050E0A0
:1059D00060E070E081E697E00E949A1180912401D6
:1059E000813049F4109272071092710790927407F7
:1059F0008092730708C0909272078092710710928C
:105A000074071092730710926E0710926D07F09250
:105A10007007E0926F076CEF77E081E697E00E94F5
:105A2000431B80912401823059F410927207109226
:105A3000710781E090E090937407809373070AC028
:105A400081E090E090937207809371071092740741
:105A50001092730710926E0710926D07B092700744
:105A6000A0926F076AEE77E081E697E00E94431B01
:105A700080912401833059F41092720710927107BB
:105A800081E090E090937407809373070AC081E0EF
:105A900090E09093720780937107109274071092B0
:105AA000730710926E0710926D0783E290E0909357
:105AB000700780936F0760EE77E081E697E00E94C1
:105AC000431B80912401843059F410927207109284
:105AD000710781E090E090937407809373070AC088
